:101291000A2044697374616E6365202564203D20D2
:1012A10020256420636D200A000A20537461727442
:1012B100202064733138623230200A000A205365DD
:1012C1006E6420636F6E66696775726174696F6EB3
:1012D100202064733138623230200A000A204E6FB8
:1012E10074206465746563746564202064733138A7
:1012F100623230200A000A2054656D706572617493
:10130100757265203D202565200A000A2056444457
:1013110020766F6C74616765203D202565200A0089
:1017D100C109420055000042005700004400610069
:1017E1000000004400370000000044005B000000DE
:1017F1000044003B0000000044003F0000000042A4
:101801000035000042004D0000410051C24300522A
:0D181100141600420059000042005F000064
:01008100225C
:031A4700EEFF228D
:1019F400AE05A8067401088002C333D8FC4FFF2249
:1019D200AE05A8067401088002C333D8FCF45FFF89
:0119E20022E2
:101A0400AE05A8067401088002C333D8FC6FFF2218
:1019E300AE05A806EF088003A2E713D8FB5401FF56
:0119F30022D1
:10195D00AC05AA071219E3EFAF026006EC2BFD02EE
:09196D0019F4EC2BFD1219D22231
:1018B700EFFD7C00C3940A748094805005EF2430B8
:1018C700FF22D3ED9409EC64809480400EEF9410CE
:0E18D700748094805005EF2437FF227F00229A
:10178200C2AF53B1FE43B20153B1FD43B20253B3F0
:10179200FD43B40253B1EF43B21053B3DF43B4205D
:1017A20053B1DF53B2DF53B3EF43B41053B37F539C
:1017B200B47F53ACFE53ADFE75C6FA75C524439C87
:0F17C20002D2AF43C408C284C295C297C2972215
:10197600AE071FEE60117C017DFEED1DAA0470010D
:071986001C4A60EC0080F335
:01198D002237
:0E1A1400EF1FAC0670011E4C60030080F32231
:0419BD007F3C7E00ED
:1019C100EF1FAC0670011E4C60060000000080F0A5
:0119D10022F3
:10198E00AB07AA06EB1BAE0270011A4E60097FE888
:08199E007E031219C180ED2245
:10141F00E4900001F0A3F0D2977F0AFE1219C1C227
:10142F009730B0FD30B011900002E004F0700690DC
:10143F000001E004F00080EC900001E0FEA3E0FF6B
:10144F007C007D1C1205EDE4FD7BE87A03F9F812B0
:10145F000671900055EEF0A3EFF07BFF7A127991B1
:10146F00900001E0FFA3E0900008CFF0A3EFF09011
:10147F000055E0FFA3E090000ACFF0A3EFF00208C1
:01148F005A02
:0612010090006512074891
:10120700E4900069F0A37404F0D280D294FF12191D
:1012170076C294E075F01FA4FF121976E490006976
:10122700F0900069E0F9C39418748094805058E4F2
:101237007F01FEFDFCA801120735900065E0F8A3C9
:10124700E0F9A3E0FAA3E05FFFEA5EFEE95DFDE8EF
:101257005CFC4D4E4F6013D29490006AE075F0032A
:10126700A4FF121976C294E08011D29490006AE02C
:10127700FF121976C294E075F003A4FF1219769055
:091287000069E004F0809AC280C5
:01129000223B
:10000300E4F9FB90000174AAF0D280D2947F01122C
:100013001976C2947F1F121976E9FF7E00C39403F9
:1000230074809480504BEF900001700574BAF08097
:100033000374AAF0E4FBEBC3940874809480502EFD
:10004300900001E0FFC374079BFD1219E3EF600DFD
:10005300D2947F03121976C2947F01800BD2947FCE
:1000630001121976C2947F031219760B80C8098096
:05007300A8C294C28048
:010078002265
:10185800C200E4FDD200300025C2857FE07E01127F
:1018680019C1D2851219BDA28592007FA47E0112EA
:0F18780019C10DEDD394727480948040D922D39E
:01188700223E
:02193900AD07F8
:10193B00E4FBEBC39408748094805015C28500EDD2
:10194B0030E002D2851219BDD285EDC313FD0B8099
:01195B00E1AA
:01195C002268
:1018E500E4FDFBEBC3940874809480501DEDC31395
:1018F500FDC28500D2857F017E001219C1308504A5
:0C190500ED4480FD1219BD0B80D9AF0528
:0119110022B3
:10132100D2917BFF7A1279AA12085A1218585015D5
:101331007FCC1219397F441219393085FD7BFF7A30
:101341001279BD80067BFF7A1279DD12085A1218D4
:101351005850477FCC1219397FBE1219391218E53E
:10136100AA071218E5EFAD02FCEC120329E4FBFA1F
:101371007980783D12017E9000011207487BFF7A47
:101381001279F7900001E0FCA3E0FDA3E0FEA3E0E9
:10139100FF90000812074812085AC291900001E01C
:0A13A100FCA3E0FDA3E0FEA3E0FFC3
:0113AB00221F
:10115600A2AF920AC2AF75C7AA75C755439F01A22F
:101166000A92AF75A60CE4F5A775AF04A2AF920A72
:10117600C2AF75C7AA75C75543A401A20A92AFAFFD
:10118600AE75A60DF5A775AF04A2AF920AC2AF75EC
:10119600C7AA75C75543A401A20A92AFADAEED54D6
:1011A6000FFDA2AF920AC2AF75C7AA75C755539F66
:1011B600FEA20A92AFEF75F010A47C002DFDEC356F
:1011C600F0FC12032990003B12074890003BE0F820
:1011D600A3E0F9A3E0FAA3E0FBE4FFFE7D807C45F3
:1011E600120287A804A905AA06AB07E4FFFE7D4004
:0B11F6007C4512028790005B02074856
:1019A600E4FFEFC3940374809480500AC2EFD2EE32
:0619B60030EFFD0F80EC94
:0119BC002208
:100C7200A2AF920AC2AF75C7AA75C755439F01A218
:100C82000A92AF75AF0475A60DE4F5A7A2AF920A5A
:100C9200C2AF75C7AA75C75543A401A20A92AF9005
:100CA2000002E5AEF0E0FF54F0A3F06480600302BE
:100CB2000D39EF540F900002F075A60CE4F5A7A2CF
:100CC200AF920AC2AF75C7AA75C75543A401A20A5B
:100CD20092AF900001E5AEF0E075F010A4FFA3E042
:100CE2007C002FFDEC35F0FC120329900004120762
:100CF20048E4FFFE7D407C40900004E0F8A3E0F968
:100D0200A3E0FAA3E0FB12017EE4FBFA79807840CB
:100D1200120287900008120748E4FFFE7D047CC29D
:100D2200900008E0F8A3E0F9A3E0FAA3E0FB1200C8
:100D32008D90005B120748900003E07067900002FC
:100D4200E0540FF075A60CE4F5A7A2AF920AC2AF69
:100D520075C7AA75C75543A401A20A92AF900001B4
:100D6200E5AEF0E075F010A4FFA3E07C002FFDECEF
:100D720035F0FC120329900004120748E4FFFE7DBF
:100D8200407C40900004E0F8A3E0F9A3E0FAA3E07D
:100D9200FB12017EE4FBFA79807840120287900010
:100DA2005B120748900003E064906003020E337503
:100DB200A60EF5A7A2AF920AC2AF75C7AA75C7550C
:100DC20043A401A20A92AF900001E5AEF075A60F0E
:100DD200E4F5A7A2AF920AC2AF75C7AA75C7554379
:100DE200A401A20A92AFA3E5AEF0E0540FFFF0FD1A
:100DF200900001E075F010A47C002DFDEC35F0FCB4
:100E0200120329900004120748E4FFFE7D407C4053
:100E1200900004E0F8A3E0F9A3E0FAA3E0FB1201DA
:100E22007EE4FBFA7980784012028790005B120719
:100E320048A2AF920AC2AF75C7AA75C755539FFEA3
:040E4200A20A92AFBF
:010E46002289
:100F9B0043E80853E8F843E101759502E4FFFEC20C
:100FAB00EFD2EE30EFFD74432FF58274003EF583E4
:100FBB00E5C3F074482FF58274003EF583E5C2F06B
:100FCB000FBF00010EEF64054E70D4E4F59553E1AD
:100FDB00FEFE7F0274432FF58274003EF583E0FD25
:100FEB0090005AE02DF0900059E03400F074482F37
:100FFB00F58274003EF583E0FD900060E02DF090EB
:10100B00005FE03400F00FBF00010EEF64054E707F
:10101B00C3900059E0FEA3E0FF7C007D031205FFA7
:10102B0090004FEFF0FB90005FE0FEA3E0FF7C0031
:10103B007D031205FF900050EFF0FDEB75F010A44F
:10104B007C002DFDEC35F0FC120329AB07AA06A999
:10105B0005A804E4FFFE7D807C4512028790005BAF
:10106B00E0F8A3E0F9A3E0FAA3E0FB12017E900005
:10107B003F1207487BFF7A13790C90003FE0FCA3EB
:10108B00E0FDA3E0FEA3E0FF900008120748120862
:0E109B005AE4900059F0A3F090005FF0A3F02B
:0110A9002224
:020E4700AD07F5
:100E4900E490008BF0A3F0FFFEEDB408004003022C
:100E59000F0A900E62F8282873020E7A020E7D029C
:100E69000E92020EA6020EBA020ECE020EE2020E79
:100E7900F6020F0A53E8F043E80143AC0153ADFE13
:100E8900E4F5F643F602020F1953E8F043E802438A
:100E9900B18053B27FE4F5F643F604807353E8F06A
:100EA90043E80343B14053B2BFE4F5F643F6088083
:100EB9005F53E8F043E80443B12053B2DFE4F5F6A9
:100EC90043F610804B53E8F043E80543B11053B2A1
:100ED900EFE4F5F643F620803753E8F043E806439C
:100EE900B10853B2F7E4F5F643F640802353E8F02E
:100EF90043E80743B30253B4FDE4F5F643F68080B3
:100F09000F53E8F043B38053B47FE4F5F643F60199
:100F190043E101C2EFD2EE30EFFDAFC3AEC2AFC3C2
:100F2900EF75F004A4FFACC2ECFBEF4BFF90008B14
:100F3900E5F0F0A3EFF0ED90008B7046E0FCA3E044
:100F4900FDE41203297B007A40794E784512017E2F
:100F59007B007AC0797F78441202879000371207A4
:100F690048E4FFFE7D7A7C44900037E0F8A3E0F97D
:100F7900A3E0FAA3E0FB12017E120362900035EEB2
:100F89008008E0FFA3E090004DCFF0A3EFF053E11C
:010F9900FE59
:010F9A002234
:0D1A2200200905D209D28122C209C2812209
:01008200225B
:03008300021888D8
:10188800C0E0C083C082C0D053C4EFC3900058E00A
:101898009432900057E09400500CA3E004F07006D6
:0F18A800900057E004F0D0D0D082D083D0E0324F
:1014FE00E4900000F0121782120C727F807E257D20
:10150E00007C0012181FC3900058E09432900057D0
:10151E00E094004033E4F0A3F0121A2212141F12CA
:10152E000F9B121321900061120748E4900000F007
:10153E00900000E0C3940874809480500B12000356
:10154E00900000E004F080E87F0A7E0012198E8081
:01155E00B5D7
:1016770090006B120748538EF7438901D28CE4FF21
:10168700FEFDFC90006BE0F8A3E0F9A3E0FAA3E00D
:10169700FBC3120711602F758A7E758CFF308DFD95
:1016A700C28D90006BE0FCA3E0FDA3E0FEA3E02465
:1016B700FFFFEE34FFFEED34FFFDEC34FFFC90003E
:0916C7006B12074880B8C28C22A6
:1016D00090006F120748538EF7438901D28CE4FFC4
:1016E000FEFDFC90006FE0F8A3E0F9A3E0FAA3E0B0
:1016F000FBC3120711602F758ACA758CFA308DFDF5
:10170000C28D90006FE0FCA3E0FDA3E0FEA3E02407
:10171000FFFFEE34FFFEED34FFFDEC34FFFC9000E4
:091720006F12074880B8C28C2248
:10172900900073120748538EEF438910D28EE4FF5D
:10173900FEFDFC900073E0F8A3E0F9A3E0FAA3E052
:10174900FBC3120711602F758BEA758DCB308FFDA6
:10175900C28F900073E0FCA3E0FDA3E0FEA3E024A8
:10176900FFFFEE34FFFEED34FFFDEC34FFFC90008B
:091779007312074880B8C28E22E9
:10161B0090007712074853C9BF53C9DF43C910D293
:10162B00CAE4FFFEFDFC900077E0F8A3E0F9A3E02D
:10163B00FAA3E0FBC3120711602F75CC3075CDF800
:10164B0030CFFDC2CF900077E0FCA3E0FDA3E0FE1E
:10165B00A3E024FFFFEE34FFFEED34FFFDEC34FF7F
:0C166B00FC90007712074880B8C2CA2229
:10155F0090007B12074875C40743C408E4FFFEFDE3
:10156F00FC90007BE0F8A3E0F9A3E0FAA3E0FBC353
:10157F00120711603575C52C75C6CFE5C4541064BC
:10158F001070F853C4EF90007BE0FCA3E0FDA3E0E4
:10159F00FEA3E024FFFFEE34FFFEED34FFFDEC343D
:0E15AF00FFFC90007B12074880B253C4F72265
:1015BD0090007F12074875C40743C408E4FFFEFD81
:1015CD00FC90007FE0F8A3E0F9A3E0FAA3E0FBC3F1
:1015DD00120711603575C5D875C6FFE5C454106482
:1015ED001070F853C4EF90007FE0FCA3E0FDA3E082
:1015FD00FEA3E024FFFFEE34FFFEED34FFFDEC34DF
:0E160D00FFFC90007F12074880B253C4F72202
:10181F0053B1BF53B2BF53B17F53B27F759850438B
:10182F008920438780438E1053C4DFAB07AA06A9D4
:10183F0005A8047F407E427D0F7C00120671EF04E5
:09184F00F404F58DD28ED2992229
:1013AC0090008312074853B1BF53B2BF53B17F5360
:1013BC00B27F75985043878053C4F843C420900083
:1013CC0083E0F8A3E0F9A3E0FAA3E0FB7F407E42C0
:1013DC007D0F7C00120671C374FF9FFF74FF9EFE8D
:1013EC00E49DFDE49CFC78081207228FC6900083D4
:1013FC00E0F8A3E0F9A3E0FAA3E0FB7F407E427D96
:10140C000F7C00120671C374FF9FFF8FC543C40885
:03141C00D2992240
:070079003098FDAF99C29819
:01008000225D
:081A2F00C2998F993099FD2244
:1014900090008712074853B1FB53B2FB53B3BF53BD
:1014A000B4BF75F85075C40853C4DF900087E0F8E6
:1014B000A3E0F9A3E0FAA3E0FB7F407E427D0F7C2E
:1014C00000120671C374FF9FFF74FF9EFEE49DFD32
:1014D000E49CFC78081207228FC6900087E0F8A3EE
:1014E000E0F9A3E0FAA3E0FB7F407E427D0F7C00A1
:0E14F000120671C374FF9FFF8FC543C408220C
:071A370030F8FDAF9AC2F880
:011A3E002285
:081A3F00C2F98F9A30F9FD2273
:030000000210AA41
:1010AA0075C7AA75C75575FD5A75C7AA75C7557507
:1010BA00FDA5787FE4F6D8FD9000007FFF7E03E46B
:0C10CA00F0A3DFFCDEFA75812102111199
:100086000203CEE86480F8E933E83360110460F0D7
:10009600ED33EC337009E8FCE9FDEAFEEBFF2204E0
:1000A60060DED3EB9FEA9EE99DE8C2E78CF0C2F7DB
:1000B60095F0400CE8CCF8E9CDF9EACEFAEBCFFBA7
:1000C60012039985D0F05804700320D5B3E8047064
:1000D600075002B2D50203D892D5EC0460F7E4CCFF
:1000E600C0E0C398F8603B94186008400DD0E0FB70
:1000F6000203B0E4FBFAC9FC8028E830E406E4C950
:10010600FBE4CAFCE830E305E4C9CACBFCE85407C3
:100116006010F8C3E913F9EA13FAEB13FBEC13FCCE
:10012600D8F130F52FC3E49CFCEF9BFFEE9AFEED71
:1001360099FDD0E0FBEF4E4D4C701222DB0302031B
:10014600D5EC2CFCEF33FFEE33FEED33FDED30E75F
:10015600EB0203B0EF2BFFEE3AFEED39FDD0E0FBEC
:1001660050130BBB00030203D8ED13FDEE13FEEF95
:0801760013FFEC13FC0203B0BF
:10017E00EC4D6011E8497017ED33EC3304600DE47B
:10018E00FCFFFEFD22E933E8330470F80203CE12C1
:10019E00039958046009E4CC2481500628500902C2
:1001AE0003D82840030203D5C0E0EB4A7044B9805F
:1001BE0006D0E0FB0203C4EF4E701CBD8008EBFFBF
:1001CE00EAFEE9FD80EBE98DF0A4FEE5F0020267A0
:1001DE00E9CDF9EAFEEBFFEF89F0A4FCE5F0CE895C
:1001EE00F0A42EFFE435F0CD89F0A42DFEE435F019
:1001FE008067EF4E7005BD80D780C3EF8BF0A4AC47
:10020E00F0EE8BF0A42CFCE435F0F8EF8AF0A42C81
:10021E00E5F038FCE433CB8DF0A42CFCE5F03BF894
:10022E00EE8AF0A42CFCE5F038F8E433CF89F0A484
:10023E002CFCE5F038CF3400CE89F0A42FFFE5F08A
:10024E003EFEE433C98DF0A42EFEE5F039CD8AF0E2
:10025E00A42FFFE5F03EFEE43DFD33D0E0FB50075A
:10026E000BBB000F0203D8EC2CFCEF33FFEE33FE7A
:06027E00ED33FD0203B0A8
:100284000203D8EC5D046005E8590470030203CE50
:10029400120399580460F6EC4860F2EC7004FDFE19
:1002A400FF22C860DB2481C85009C398600250064D
:1002B4000203D59850CAF582E9294B4A7005AB82EE
:1002C4000203C475F0007C1A7880C3EF9BEE9AEDAC
:1002D40099400DC3EF9BFFEE9AFEED99FDE842F0C5
:1002E400DC23ACF0D0E0FFD0E0FED0E0FDAB822018
:1002F400E7101BEB60BAEC2CFCEF33FFEE33FEEDA2
:1003040033FD0203B0E803F830E705C0F075F000F0
:10031400EF2FFFEE33FEED33FD40B830E7C280AA85
:1003240075F020800E75F010800575F0087D007E54
:10033400007F003392D530D503120703EC3340100D
:10034400EF33FFEE33FEED33FDEC33FCD5F0ED225D
:0E035400E5F0247EA2D513CC92E7CDCEFF2299
:10036200EDD2E7CD33EC3392D524814006E4FFFE93
:10037200FDFC22FCE4CFCECDCC24E0501174FF80F2
:10038200EDC3CC13CCCD13CDCE13CECF13CF04708F
:07039200F030D5DE02070385
:1007EF00E5082408F582E43400F583E0050822903B
:1007FF000005300703900008E475F001120754025A
:10080F0005952000E97F2ED2008018EF540F249019
:10081F00D43440D4FF30040BEF24BFB41A0050037C
:10082F002461FFE50960021509050CE50C7002054E
:10083F000B30070E900005E475F001120754EF021C
:10084F0005DB0219127403D2078003E4C207F5080F
:10085F0090000512076BE4F509F50BF50CE509603F
:10086F00077F2012083280F5750AFFC201C200C24D
:10087F0002C203C205C206C2081207FEFF700D3086
:10088F0007057F00120843AF0CAE0B22B4255FC2E1
:10089F00D5C2041207FEFF24D0B40A00501A75F017
:1008AF000A780930D50508B6FF0106C6A426F6203A
:1008BF00D5047002D20380D924CFB41A00EF5004AC
:1008CF00C2E5D204020B35D20180C6D20080C0D25D
:1008DF000280BCD2D580BAD20580B47F20120832F4
:1008EF002002077401B5090040F11207EFFF12084B
:1008FF003202086CD208D20680951207EFFB12075E
:10090F00EFFA1207EFF94A4B700679337A0C7BFF37
:10091F0020022EE509602A7E008E82758300120563
:10092F00AE60060EEE650A70F0C2D5EBC0E0EAC00D
:10093F00E0E9C0E0EE120B96D0E0F9D0E0FAD0E09B
:10094F00FB120595FF60AAEBC0E0EAC0E0E9C0E04A
:10095F00120832D0E02401F9D0E03400FAD0E0FBE5
:10096F00E50A0460DCD50AD98087D20280A2120B77
:10097F007860F7E50A7001041203E3A90A600DE538
:10098F000A600914F50A120C20EF60F3EA30E7024F
:10099F00F404C3995079EAF4250A0430E701E4041A
:1009AF00F50A800D120B7860C1EA050A250A1203B9
:1009BF00E3EA900034F030E701E4250A04D50A0495
:1009CF0020050114120B96E4C0E0120C20900034A5
:1009DF00E0601320E70714F012081A802204F0D009
:1009EF00E014C0E07F0012081AE50A600712081130
:1009FF00150A800B300503120811D0E002086CD0E5
:100A0F00E00480C4120B78609EE50A041203E390A1
:100A1F000034EAF0E50A2005026001042404120BF9
:010A2F009630
:100A300074FF04C0E0120C2012081AE50A20050217
:100A40006003120811D0E0B50AE87F45120824902F
:100A50000034E07F2B30E7047F2DF404C0E012085F
:100A600032D0E075F00A84C0F012081BD0E0120802
:100A70001B02086C791080027908C206C20880083F
:100A8000D2D5790A8004790AC2D5E50A047002F544
:100A90000AE4FAFDFEFF1207EFFC7B0820011312A7
:100AA00007EFFD7B1030000A1207EFFE1207EFFF81
:100AB0007B20EC3382D592D55013C3E43000069FDF
:100AC000FFE49EFEE42001039DFDE49CFCE4CBF8E2
:100AD000C201EC700CCFCECDCCE824F8F870F380D6
:100AE00017C3EF33FFEE33FEED33FDEC33FCEB3396
:100AF000FB994002FB0FD8E9EB300105F8D0E0C4C8
:100B000048B201C0E00AEC4D4E4F78207B0070C225
:100B1000EAB50A0040BCC0E0120B98D0F0D0E0204B
:100B20000104C4C0E0C4B201C0F012081BD0F0D56B
:100B3000F0EB02086C1207740909530A745808DABA
:100B40004C08D6420A784F0A80440A804908EF438D
:100B50000A865509B3460A1345097D470C535008C8
:100B6000DE2D08E22E09052B08E6230903200C3CA4
:100B70002A089E48000008FDE50AB4FF03750A062E
:100B80001207EFFC1207EFFD1207EFFE1207EFFF4F
:100B900090002D020420790AA2D520031430050903
:100BA000B910020404B9080104A2D52006025001BC
:100BB000042002689202B509005034C0E07F203062
:100BC00003197F30A20272067205500F120BEFC29A
:100BD00002C206C205C2087F30800F300503E9C09B
:100BE000E0120832300503D0E0F9D0E0B509CC308E
:100BF00005177F30B9100C1208327F583004077F78
:100C0000788003B908031208323002057F2D0208EC
:100C1000327F202008F87F2B2006F322920280CF1B
:100C20007F00B40700500B242DF582E43400F583D7
:100C3000E0FF22286E756C6C2900D2011207EF309C
:100C400001F8C201780930D50108F602089E2D503E
:100C50004349581207EF2403B405004001E4900C07
:100C60004E93120823743A120823D2037509040222
:020C70000A7404
:10039900E9D2E7C933E833F892D5EDD2E7CD33ECAA
:0703A90033FC5002B2D52223
:1003B000EC30E7100FBF000C0EBE00080DBD0004AE
:1003C0000BEB6014A2D5EB13FCED92E7FD2274FF5A
:1003D000FCFDFEFF22E480F8A2D574FF13FC7D80B3
:0303E000E480EFC7
:1003E300F920E73624F950037907E4F42402FBE506
:1003F30082158270021583DBF6E024FB501BE96053
:1004030014E4F0E582158270021583E004F0B40A67
:0D04130008E4F0D9EE7401F00A22C2D522EF
:10042000ED33EC3392D5FA602AB4FF33EDC2E77BAB
:10043000FF60067A047945E4227A04794E20D504D7
:100440007A047949224E614E002B494E46002D49CF
:100450004E4600E47A08F0A3DAFC7B00740722C061
:1004600083C082ECC0E0EDC0E0EEC0E0EFC0E0EAA7
:1004700075F010A4CAABF075F04DA42BFBE435F079
:10048000FCEA2410FAEB34C5FBEC34D9FCEDC2E7EE
:10049000FF75F056A4F42411C5F0F434C58FF0A410
:1004A0002AE5F03BE43CF020E714120555D0E0FFCC
:1004B000D0E0FED0E0FDD0E0FC1202878014F4040E
:1004C000120555D0E0FFD0E0FED0E0FDD0E0FC12F8
:1004D000017ED082D083E0FAEDD2E7CD33EC332435
:1004E00082FBE4C3CF33CFCE33CECD33CD33DBF37A
:1004F0007B0775F00A846004F0A31B0AE5F0F0A303
:100500008FF0740AA4FFACF08EF0740AA42CFEAC39
:10051000F050010C8DF0740AA42CFDE435F0F0A32A
:05052000DBDE74072280
:100525003F8000004120000042C80000447A0000DE
:10053500461C400047C35000497424004B18968060
:100545004CBEBC205A0E1BCA6753C21C749DC5AE57
:10055500FB60065407601C2323120583EB543860A7
:100565000912056F12057E12017EECF8EDF9EEFA1F
:10057500EFCB22EB12057E80F1543803241C900545
:1005850025FE93FC0EEE93FD0EEE930ECE93FF2209
:1010D6000214FEE493A3F8E493A34003F68001F21E
:1010E60008DFF48029E493A3F85407240CC8C3331B
:1010F600C4540F4420C8834004F456800146F6DFEA
:10110600E4800B01020408102040809017D1E47E91
:10111600019360BCA3FF543F30E509541FFEE493DE
:10112600A360010ECF54C025E060A840B8E493A3A5
:10113600FAE493A3F8E493A3C8C582C8CAC583CAD0
:10114600F0A3C8C582C8CAC583CADFE9DEE780BE88
:01181E0000C9
:10059500BB010689828A83E0225002E722BBFE0264
:0905A500E32289828A83E4932297
:1005AE00BB010CE58229F582E5833AF583E0225002
:1005BE0006E92582F8E622BBFE06E92582F8E2224C
:0D05CE00E58229F582E5833AF583E4932266
:1005DB00BB010689828A83F0225002F722BBFE01FF
:0205EB00F322F9
:1005ED00EF8DF0A4A8F0CF8CF0A428CE8DF0A42E22
:0205FD00FE22DC
:1005FF00C2D5EC30E709B2D5E4C39DFDE49CFCEE17
:10060F0030E715B2D5E4C39FFFE49EFE12079AC3ED
:10061F00E49DFDE49CFC800312079A30D507C3E4E8
:06062F009FFFE49EFE2285
:1006350075F008758200EF2FFFEE33FECD33CDCC7C
:1006450033CCC58233C5829BED9AEC99E5829840FF
:100655000CF582EE9BFEED9AFDEC99FC0FD5F0D6DC
:10066500E4CEFBE4CDFAE4CCF9A88222B800C1B906
:100675000059BA002DEC8BF084CFCECDFCE5F0CB44
:10068500F97818EF2FFFEE33FEED33FDEC33FCEB7D
:1006950033FB10D703994004EB99FB0FD8E5E4F938
:1006A500FA227818EF2FFFEE33FEED33FDEC33FC25
:1006B500C933C910D7059BE99A4007EC9BFCE99A19
:1006C500F90FD8E0E4C9FAE4CCFB2275F010EF2F5E
:1006D500FFEE33FEED33FDCC33CCC833C810D7075E
:1006E5009BEC9AE899400AED9BFDEC9AFCE899F899
:0E06F5000FD5F0DAE4CDFBE4CCFAE4C8F9222C
:0E070300C3E49FFFE49EFEE49DFDE49CFC2207
:10071100EB9FF5F0EA9E42F0E99D42F0E89C45F03E
:0107210022B5
:10072200E8600FECC313FCED13FDEE13FEEF13FFB5
:03073200D8F122D9
:10073500E8600FEFC333FFEE33FEED33FDEC33FC22
:03074500D8F122C6
:0C074800ECF0A3EDF0A3EEF0A3EFF02224
:10075400F8E0FBA3A3E0F925F0F0E582158270022E
:070764001583E0FA38F022D2
:09076B00EBF0A3EAF0A3E9F0228F
:10077400D083D082F8E4937012740193700DA3A314
:1007840093F8740193F5828883E473740293686028
:06079400EFA3A3A380DF28
:10191200EFB40A07740D12191D740A309811A899B0
:10192200B8130CC2983098FDA899C298B811F63035
:0719320099FDC299F599220D
:10079A00BC000BBE0029EF8DF084FFADF022E4CC43
:1007AA00F875F008EF2FFFEE33FEEC33FCEE9DEC0C
:1007BA00984005FCEE9DFE0FD5F0E9E4CEFD22ED52
:1007CA00F8F5F0EE8420D21CFEADF075F008EF2F9C
:1007DA00FFED33FD4007985006D5F0F222C398FD8D
:0507EA000FD5F0EA222A
:00000001FF
